:020000040800F2
:10000000000002207D3B00088512000887120008CE
:10001000891200088B1200088D12000800000000F1
:100020000000000000000000000000008F12000827
:1000300091120008000000009312000895120008B9
:10004000CD3B0008CD3B0008CD3B0008CD3B000870
:10005000CD3B0008CD3B0008CD3B0008CD3B000860
:10006000CD3B0008CD3B0008CD3B0008CD3B000850
:10007000CD3B0008CD3B0008CD3B0008CD3B000840
:10008000CD3B0008CD3B0008CD3B00080000000040
:10009000000000000000000000000000CD3B000850
:1000A000CD3B0008CD3B0008CD3B0008CD3B000810
:1000B000CD3B0008CD3B0008CD3B0008CD3B000800
:1000C000CD3B0008CD3B0008CD3B0008CD3B0008F0
:1000D000CD3B0008CD3B0008CD3B000800000000F0
:1000E000CD3B0008CD3B0008CD3B000800000000E0
:1000F000000000000000000000000000CD3B0008F0
:1001000000000000CD3B0008CD3B0008CD3B0008BF
:1001100000000000000000000000000000000000DF
:10012000CD3B0008CD3B0008CD3B0008CD3B00088F
:10013000CD3B0008000000000000000000000000AF
:10014000000000000000000000000000CD3B00089F
:10015000CD3B0008CD3B0008CD3B0008CD3B00085F
:10016000CD3B0008CD3B000800000000000000006F
:10017000000000000000000000000000000000007F
:1001800000000000CD3B000800000000000000005F
:08019000CD3B0008CD3B000847
:1001A00010B5054C237833B9044B13B10448AFF3B1
:1001B00000800123237010BDDC010020000000003E
:1001C0000C6E000808B5034B1BB103490348AFF39D
:1001D000008008BD00000000E00100200C6E000857
:1001E000034613F8012B002AFBD1181A0138704777
:1001F00001F0FF01102A2BDB10F0070F08D010F8D8
:10020000013B013A8B422DD010F0070F42B3F6D1DB
:10021000F0B441EA012141EA014122F007047FF0F4
:1002200000070023F0E80256083C85EA010586EA4B
:10023000010685FA47F5A3FA87F586FA47F6A5FA87
:1002400087F68EB9EED1F0BC01F0FF0102F0070293
:1002500032B110F8013B013A83EA010313B1F8D13E
:100260000020704701387047002D06BF354603381F
:10027000073815F0010F07D1013015F4807F02BF58
:10028000013015F4C03F0130F0BC0138704700BFA9
:1002900081F0004102E000BF83F0004330B54FEA37
:1002A00041044FEA430594EA050F08BF90EA020FA4
:1002B0001FBF54EA000C55EA020C7FEA645C7FEA37
:1002C000655C00F0E2804FEA5454D4EB5555B8BF5A
:1002D0006D420CDD2C4480EA020281EA030382EACB
:1002E000000083EA010180EA020281EA0303362D5D
:1002F00088BF30BD11F0004F4FEA01314FF4801C30
:100300004CEA113102D0404261EB410113F0004F41
:100310004FEA03334CEA133302D0524263EB4303F8
:1003200094EA050F00F0A780A4F10104D5F1200E96
:100330000DDB02FA0EFC22FA05F2801841F10001F1
:1003400003FA0EF2801843FA05F359410EE0A5F1C5
:1003500020050EF1200E012A03FA0EFC28BF4CF0F6
:10036000020C43FA05F3C01851EBE37101F00045AC
:1003700007D54FF0000EDCF1000C7EEB00006EEBB9
:100380000101B1F5801F1BD3B1F5001F0CD3490843
:100390005FEA30004FEA3C0C04F101044FEA44529A
:1003A00012F5800F80F09A80BCF1004F08BF5FEA21
:1003B000500C50F1000041EB045141EA050130BD01
:1003C0005FEA4C0C404141EB0101013C28BFB1F513
:1003D000801FE9D291F0000F04BF01460020B1FA5E
:1003E00081F308BF2033A3F10B03B3F120020CDA31
:1003F0000C3208DD02F1140CC2F10C0201FA0CF00F
:1004000021FA02F10CE002F11402D8BFC2F1200C73
:1004100001FA02F120FA0CFCDCBF41EA0C01904029
:10042000E41AA2BF01EB0451294330BD6FEA040472
:100430001F3C1CDA0C340EDC04F11404C4F120025D
:1004400020FA04F001FA02F340EA030021FA04F36F
:1004500045EA030130BDC4F10C04C4F1200220FAC6
:1004600002F001FA04F340EA0300294630BD21FA04
:1004700004F0294630BD94F0000F83F4801306BFCA
:1004800081F480110134013D4EE77FEA645C18BFBE
:100490007FEA655C29D094EA050F08BF90EA020F55
:1004A00005D054EA000C04BF1946104630BD91EA4D
:1004B000030F1EBF0021002030BD5FEA545C05D150
:1004C0004000494128BF41F0004130BD14F580048F
:1004D0003CBF01F5801130BD01F0004545F0FE4103
:1004E00041F470014FF0000030BD7FEA645C1ABF38
:1004F000194610467FEA655C1CBF0B46024650EA6F
:10050000013406BF52EA033591EA030F41F400219A
:1005100030BD00BF90F0000F04BF0021704730B520
:100520004FF4806404F132044FF000054FF00001F5
:1005300050E700BF90F0000F04BF0021704730B5B6
:100540004FF4806404F1320410F0004548BF40428B
:100550004FF000013EE700BF42004FEAE2014FEAE0
:1005600031014FEA02701FBF12F07F4393F07F4FBB
:1005700081F06051704732F07F4208BF704793F0BE
:100580007F4F04BF41F40021704730B54FF46074D1
:1005900001F0004521F000411CE700BF50EA0102D4
:1005A00008BF704730B54FF000050AE050EA01027D
:1005B00008BF704730B511F0004502D5404261EBED
:1005C00041014FF4806404F132045FEA915C3FF42E
:1005D000D8AE4FF003025FEADC0C18BF03325FEACB
:1005E000DC0C18BF033202EBDC02C2F1200300FA7C
:1005F00003FC20FA02F001FA03FE40EA0E0021FAA1
:1006000002F11444BDE600BF70B54FF0FF0C4CF48E
:10061000E06C1CEA11541DBF1CEA135594EA0C0F40
:1006200095EA0C0F00F0DEF82C4481EA030621EA7B
:100630004C5123EA4C5350EA013518BF52EA0335B6
:1006400041F4801143F4801338D0A0FB02CE4FF068
:100650000005E1FB02E506F00042E0FB03E54FF098
:100660000006E1FB03569CF0000F18BF4EF0010E90
:10067000A4F1FF04B6F5007F64F5407404D25FEA8C
:100680004E0E6D4146EB060642EAC62141EA55513F
:100690004FEAC52040EA5E504FEACE2EB4F1FD0C81
:1006A00088BFBCF5E06F1ED8BEF1004F08BF5FEAFF
:1006B000500E50F1000041EB045170BD06F00046B1
:1006C00046EA010140EA020081EA0301B4EB5C045E
:1006D000C2BFD4EB0C0541EA045170BD41F4801156
:1006E0004FF0000E013C00F3AB8014F1360FDEBF7B
:1006F000002001F0004170BDC4F10004203C35DA57
:100700000C341BDC04F11404C4F1200500FA05F3D9
:1007100020FA04F001FA05F240EA020001F000427A
:1007200021F0004110EBD37021FA04F642EB0601F0
:100730005EEA430E08BF20EAD37070BDC4F10C041A
:10074000C4F1200500FA04F320FA05F001FA04F2DE
:1007500040EA020001F0004110EBD37041F10001CA
:100760005EEA430E08BF20EAD37070BDC4F12005D5
:1007700000FA05F24EEA020E20FA04F301FA05F23D
:1007800043EA020321FA04F001F0004121FA04F2E5
:1007900020EA020000EBD3705EEA430E08BF20EAB5
:1007A000D37070BD94F0000F0FD101F000464000EF
:1007B00041EB010111F4801F08BF013CF7D041EA71
:1007C000060195F0000F18BF704703F00046520075
:1007D00043EB030313F4801F08BF013DF7D043EA46
:1007E0000603704794EA0C0F0CEA135518BF95EAFC
:1007F0000C0F0CD050EA410618BF52EA4306D1D183
:1008000081EA030101F000414FF0000070BD50EAA1
:10081000410606BF1046194652EA430619D094EA2B
:100820000C0F02D150EA013613D195EA0C0F05D115
:1008300052EA03361CBF104619460AD181EA030169
:1008400001F0004141F0FE4141F470014FF0000021
:1008500070BD41F0FE4141F4780170BD70B54FF0BC
:10086000FF0C4CF4E06C1CEA11541DBF1CEA13553C
:1008700094EA0C0F95EA0C0F00F0A7F8A4EB05041E
:1008800081EA030E52EA03354FEA013100F0888015
:100890004FEA03334FF0805545EA131343EA1263DE
:1008A0004FEA022245EA111545EA10654FEA002693
:1008B0000EF000419D4208BF964244F1FD0404F54C
:1008C000407402D25B084FEA3202B61A65EB0305A8
:1008D0005B084FEA32024FF480104FF4002CB6EB65
:1008E000020E75EB030E22BFB61A754640EA0C00E5
:1008F0005B084FEA3202B6EB020E75EB030E22BF25
:10090000B61A754640EA5C005B084FEA3202B6EB65
:10091000020E75EB030E22BFB61A754640EA9C0024
:100920005B084FEA3202B6EB020E75EB030E22BFF4
:10093000B61A754640EADC0055EA060E18D04FEAB2
:10094000051545EA16754FEA06164FEAC30343EA52
:1009500052734FEAC2025FEA1C1CC0D111F4801F1F
:100960000BD141EA00014FF000004FF0004CB6E718
:1009700011F4801F04BF01430020B4F1FD0C88BFB7
:10098000BCF5E06F3FF6AFAEB5EB030C04BFB6EBC2
:10099000020C5FEA500C50F1000041EB045170BDB5
:1009A0000EF0004E4EEA113114EB5C04C2BFD4EBE2
:1009B0000C0541EA045170BD41F480114FF0000E66
:1009C000013C90E645EA060E8DE60CEA135594EAE2
:1009D0000C0F08BF95EA0C0F3FF43BAF94EA0C0FE5
:1009E0000AD150EA01347FF434AF95EA0C0F7FF45A
:1009F00025AF104619462CE795EA0C0F06D152EAAE
:100A000003353FF4FDAE1046194622E750EA410691
:100A100018BF52EA43067FF4C5AE50EA41047FF4A2
:100A20000DAF52EA43057FF4EBAE12E74FF0FF3C07
:100A300006E000BF4FF0010C02E000BF4FF0010CD8
:100A40004DF804CD4FEA410C7FEA6C5C4FEA430C51
:100A500018BF7FEA6C5C1BD001B050EA410C0CBFA0
:100A600052EA430C91EA030F02BF90EA020F002002
:100A7000704710F1000F91EA030F58BF994208BF69
:100A800090422CBFD8176FEAE37040F00100704726
:100A90004FEA410C7FEA6C5C02D150EA013C07D17D
:100AA0004FEA430C7FEA6C5CD6D152EA033CD3D0C8
:100AB0005DF8040B704700BF8446104662468C46C2
:100AC0001946634600E000BF01B5FFF7B7FF0028F5
:100AD00048BF10F1000F01BD4DF808EDFFF7F4FF1E
:100AE0000CBF012000205DF808FB00BF4DF808EDA9
:100AF000FFF7EAFF34BF012000205DF808FB00BFCC
:100B00004DF808EDFFF7E0FF94BF012000205DF8ED
:100B100008FB00BF4DF808EDFFF7CEFF94BF0120A2
:100B200000205DF808FB00BF4DF808EDFFF7C4FF9B
:100B300034BF012000205DF808FB00BF4FEA410CE4
:100B40007FEA6C5C02D150EA013C0AD14FEA430CC7
:100B50007FEA6C5C02D152EA033C02D14FF0000004
:100B600070474FF0010070474FEA410212F5001242
:100B700015D211D56FF47873B3EB625212D94FEAE4
:100B8000C12343F0004343EA505311F0004F23FACE
:100B900002F018BF404270474FF00000704750EA23
:100BA000013005D111F0004008BF6FF000407047E0
:100BB0004FF00000704700BF4FEA4102B2F1E0433E
:100BC00024BFB3F5001CDCF1FE5C0DD901F0004C34
:100BD0004FEAC0024CEA5070B2F1004F40EB830084
:100BE00008BF20F00100704711F0804F21D113F1B0
:100BF0003872BCBF01F00040704741F480114FEAE9
:100C00005252C2F11802C2F1200C10FA0CF320FA71
:100C100002F018BF40F001004FEAC1234FEAD3238E
:100C200003FA0CFC40EA0C0023FA02F34FEA4303F8
:100C3000CCE77FEA625307D150EA01331EBF4FF081
:100C4000FE4040F44000704701F0004040F0FE409C
:100C500040F40000704700BF53B94AB9002908BFEB
:100C600000281CBF4FF0FF314FF0FF3000F074B987
:100C7000ADF1080C6DE904CE00F006F8DDF804E0F3
:100C8000DDE9022304B070472DE9F047089D0446D2
:100C90008E46002B4DD18A42944669D9B2FA82F22F
:100CA00052B101FA02F3C2F1200120FA01F10CFA6B
:100CB00002FC41EA030E94404FEA1C48210CBEFBA3
:100CC000F8F61FFA8CF708FB16E341EA034306FB2C
:100CD00007F199420AD91CEB030306F1FF3080F0BB
:100CE0001F81994240F21C81023E63445B1AA4B208
:100CF000B3FBF8F008FB103344EA034400FB07F7AA
:100D0000A7420AD91CEB040400F1FF3380F00A81EA
:100D1000A74240F207816444023840EA0640E41BDF
:100D200000261DB1D4400023C5E900433146BDE88B
:100D3000F0878B4209D9002D00F0EF800026C5E92D
:100D4000000130463146BDE8F087B3FA83F6002E45
:100D50004AD18B4202D3824200F2F980841A61EBBD
:100D6000030301209E46002DE0D0C5E9004EDDE7DB
:100D700002B9FFDEB2FA82F2002A40F09280A1EBC3
:100D80000C014FEA1C471FFA8CFE0126200CB1FB18
:100D9000F7F307FB131140EA01410EFB03F0884211
:100DA00008D91CEB010103F1FF3802D2884200F29E
:100DB000CB804346091AA4B2B1FBF7F007FB101130
:100DC00044EA01440EFB00FEA64508D91CEB0404CE
:100DD00000F1FF3102D2A64500F2BB800846A4EB29
:100DE0000E0440EA03409CE7C6F12007B34022FA14
:100DF00007FC4CEA030C20FA07F401FA06F31C4343
:100E0000F9404FEA1C4900FA06F3B1FBF9F8200C4F
:100E10001FFA8CFE09FB181140EA014108FB0EF095
:100E2000884202FA06F20BD91CEB010108F1FF3AE5
:100E300080F08880884240F28580A8F102086144F1
:100E4000091AA4B2B1FBF9F009FB101144EA0141FF
:100E500000FB0EFE8E4508D91CEB010100F1FF34AA
:100E60006CD28E456AD90238614440EA0840A0FB42
:100E70000294A1EB0E01A142C846A64656D353D018
:100E80005DB1B3EB080261EB0E0101FA07F722FA3C
:100E900006F3F1401F43C5E9007100263146BDE865
:100EA000F087C2F12003D8400CFA02FC21FA03F3C8
:100EB000914001434FEA1C471FFA8CFEB3FBF7F049
:100EC00007FB10360B0C43EA064300FB0EF69E426E
:100ED00004FA02F408D91CEB030300F1FF382FD207
:100EE0009E422DD9023863449B1B89B2B3FBF7F6AF
:100EF00007FB163341EA034106FB0EF38B4208D988
:100F00001CEB010106F1FF3816D28B4214D9023EC8
:100F10006144C91A46EA004638E72E46284605E7E6
:100F20000646E3E61846F8E64B45A9D2B9EB0208B7
:100F300064EB0C0E0138A3E74646EAE7204694E747
:100F40004046D1E7D0467BE7023B614432E730467A
:100F500009E76444023842E7704700BF30B58BB000
:100F60000024059406940794089409940194224B54
:100F70001A6B42F004021A631A6B02F00402019227
:100F8000019A02941A6B42F080021A631A6B02F003
:100F900080020292029A03941A6B42F001021A63D1
:100FA0001A6B02F001020392039A04941A6B42F046
:100FB00002021A631B6B03F002030493049B0F4DA0
:100FC00022462021284601F0FDFC4FF400530593F2
:100FD0004FF404130693079405A9094801F08AFB0E
:100FE00020230593012306930794089405A9284616
:100FF00001F080FB0BB030BD003802400000024021
:101000000008024072B6FEE708B50A480A4B0360C2
:101010000A4B436000238360C3604FF48042026147
:1010200043618361C361036200F052FC00B908BDF3
:10103000FFF7E8FF1402002000540040A0860100E2
:1010400008B50A480A4B03604FF4E13343600023BC
:101050008360C36003610C2242618361C36101F05C
:1010600076FE00B908BDFFF7CDFF00BF6802002083
:101070000044004000B595B03022002108A802F0DD
:10108000D1FD0023039304930593069307930193E3
:101090001E4A116C41F080511164126C02F08052B2
:1010A0000192019A02931A4A116841F44041116079
:1010B000126802F440420292029A0221089101222F
:1010C0000B9210220C920E910F9310924FF4A87372
:1010D000119304231293139308A800F0CFFF80B953
:1010E0000F23039302210491002305934FF48052B0
:1010F0000692079303A801F027FA20B915B05DF80E
:1011000004FBFFF77FFFFFF77DFF00BF00380240C1
:101110000070004070B5C8B001F0DEFCFFF7AAFF18
:101120004C4C236A43F400132362012001F000FDBC
:10113000236A23F400132362052001F0F9FCFFF772
:101140000DFF02F08DFBFFF75FFFFFF779FF6423D0
:101150000122D021404800F0C7FE002876D13F4848
:1011600003F058FA3E4C002525606560A56002F04A
:10117000A5F902F0D7FB3B4B83ED000AC3ED010A52
:1011800083ED021AC3ED031A25606560A56001F0C6
:10119000C9FC354B1B689842F9D0344E01222021FE
:1011A000304601F00FFC02F02DFA314D2B6806930A
:1011B0006B680793AB68089306A9284602F0F0FA1B
:1011C000284CDFED2C3A95ED023AD5ED012A95ED4C
:1011D000002A94ED000AD4ED010A94ED021AD4ED30
:1011E000031A02F087FC84ED000AC4ED010A84EDC5
:1011F000021AC4ED031A1A4C204602F015FC002214
:101200002021304601F0DEFB25686668A068FFF704
:10121000A3F9CDE904013046FFF79EF9CDE90201BB
:101220002846FFF799F9CDE90001134AFA2109A8E8
:1012300003F0F8F94FF0FF3382B209A90F4801F02B
:10124000B6FD01F06FFC084B1860A0E70C4803F0F6
:101250005BF987E70038024014020020286E00087E
:10126000F801002004020020B0020020000002402B
:10127000C80200200AD7A33B506E00086802002075
:101280003C6E0008FEE7FEE7FEE7FEE7FEE770477C
:101290007047704708B501F039FC08BD00B583B050
:1012A000002100910C4B5A6C42F480425A645A6CF3
:1012B00002F480420092009A01911A6C42F080522E
:1012C0001A641B6C03F080530193019B072001F00B
:1012D0007FFB03B05DF804FB0038024030B589B0F5
:1012E0000023039304930593069307930268144B1A
:1012F0009A4201D009B030BD00250195114C236BF5
:1013000043F002032363236B03F002030193019B69
:101310004FF440730393122304930323069304238F
:10132000079303A9084801F0E5F90295236C43F4FB
:1013300000132364236C03F400130293029BD9E788
:1013400000540040003802400004024000B589B05B
:101350000023039304930593069307930268154BA8
:101360009A4202D009B05DF804FB0021019103F517
:10137000FA331A6C42F400321A641A6C02F4003226
:101380000192019A02911A6B42F001021A631B6BDF
:1013900003F001030293029B0C23039302230493A3
:1013A000032306930723079303A9034801F0A2F937
:1013B000D8E700BF004400400000024003685A69BB
:1013C00012F4806F01D1002070476FF480625A617F
:1013D00000230363202280F83D2080F83E30026C19
:1013E00042F00402026480F83C30012070472DE98D
:1013F000F04106460C46174698463BE001F092FB4A
:10140000069BC01A404502D8B8F1000F32D1012D19
:1014100018D033689B6924EA03039BB2B3FA83F3C1
:101420005B099F4226D100233363202286F83D20AA
:1014300086F83E30326C42F02002326486F83C304E
:10144000012027E033685B6924EA03039BB2B3FA07
:1014500083F35B09E5E733685B6924EA030C1FFA51
:101460008CFCBCFA8CFC4FEA5C1C674511D1B8F1CE
:10147000FF3FC3D1C4F30745012DECD033689B690E
:1014800024EA030C1FFA8CFCBCFA8CFC4FEA5C1CAF
:10149000EBE70020BDE8F0812DE9F84305460E4654
:1014A0009046994653E01A6842F400721A602B681D
:1014B0006FF480625A6100232B63202285F83D205F
:1014C00085F83E302A6C42F004022A6485F83C30EC
:1014D00001204AE001F026FBA0EB0900404502D8BC
:1014E000B8F1000F33D1012F17D02B689B6926EA82
:1014F00003039BB2003B18BF012343B300232B63BC
:10150000202285F83D2085F83E302A6C42F02002EA
:101510002A6485F83C30012027E02B685B6926EAC5
:1015200003039BB2003B18BF0123E6E72B689C69CD
:1015300026EA0404A4B2003C18BF0124A4B12B681D
:101540005A6912F4806FAED1B8F1FF3FC2D1C6F331
:101550000747012FEAD12B685C6926EA0404A4B28C
:10156000003C18BF0124E9E70020BDE8F88370B50E
:1015700004460D46164623685B6913F0800F21D19F
:101580002046FFF71BFFF8B9B5F1FF3FF3D001F09C
:10159000C9FA801BA84201D8002DECD123685B69F1
:1015A00013F0800FE7D100232363202284F83D202D
:1015B00084F83E30226C42F02002226484F83C30F1
:1015C000012000E0002070BD0120FCE72DE9F04380
:1015D00085B004460D4691461F46DDF830800D9ECD
:1015E0000368196841F4807119600096434600222F
:1015F0004FF00111FFF7FBFE60B9236805F0FE050F
:101600001D613346424626492046FFF745FF68B133
:10161000012008E023681B6813F4807F02D04FF498
:1016200000732364032005B0BDE8F0830023039317
:1016300023685A6903929B690393039B3246414690
:101640002046FFF794FF30B9012F0FD123685FFACE
:1016500089F61E61E7E7236C042B01D00120E2E745
:101660002268136843F400731360F7E723684FEAB6
:1016700019221A61324641462046FFF778FF20B909
:1016800023685FFA89F61E61CDE7236C042B01D035
:101690000120C8E72268136843F400731360F7E77A
:1016A000020001002DE9F04784B004460D461646BD
:1016B00099460C9FDDF834800268136843F4806318
:1016C00013600368196841F480711960CDF80080D7
:1016D0003B4600224FF00111FFF789FE70B95FFA17
:1016E00085FA236805F0FE051D6143463A464149E7
:1016F0002046FFF7D1FE68B1012008E023681B688F
:1017000013F4807F02D04FF400732364032004B0ED
:10171000BDE8F0870023039323685A6903929B690D
:101720000393039B424639462046FFF720FF80B9CA
:10173000B9F1010F18D12368F6B21E61424639464D
:101740002046FFF714FF68B3236C042B24D001203C
:10175000DDE7236C042B01D00120D8E72268136851
:1017600043F400731360F7E72368320A1A614246B4
:1017700039462046FFF7FBFE18B92368F6B21E6112
:10178000DCE7236C042B01D00120C0E7226813683A
:1017900043F400731360F7E72268136843F400739F
:1017A0001360D4E72268136843F480731360CDF8A4
:1017B00000803B4600224FF001112046FFF717FE44
:1017C00068B922684AF00103136143463A46094961
:1017D0002046FFF761FE002899D0012097E7236893
:1017E0001B6813F4807F02D04FF40073236403203E
:1017F0008DE700BF0200010070B504460D46164695
:1018000023685B6913F0040F21D12046FFF7D6FD52
:10181000F8B9B5F1FF3FF3D001F084F9801BA8427D
:1018200001D8002DECD123685B6913F0040FE7D1D8
:1018300000232363202284F83D2084F83E30226C6C
:1018400042F02002226484F83C30012000E00020B5
:1018500070BD0120FCE770B504460D46164614E045
:101860006FF010025A6100232363202284F83D2088
:1018700084F83E30226C226484F83C30012025E05C
:1018800023685B6913F0400F10D02368586910F08B
:10189000400F1AD1586910F0100FE1D101F042F950
:1018A000801BA842ECD8002DEFD1E9E70023236389
:1018B000202284F83D2084F83E30226C42F0200241
:1018C000226484F83C30012000E0002070BD00005C
:1018D000002800F0CC8070B5044690F83D30002B15
:1018E00077D0242384F83D302268136823F0010365
:1018F00013602268136843F400431360226813687E
:1019000023F40043136000F0D5FE62685A4B9A42FC
:1019100064D85A4B98428CBF00230123002B40F01F
:10192000A8805749A1FB00318B0C25686A6822F01A
:101930003F0242EA91426A6021680A6A22F03F024D
:1019400066684D4DAE424FD8013313430B62216898
:10195000CA6922F44F4222F0FF026668464B9E425B
:101960004CD8431E7600B3FBF6F3013340F6FC700F
:10197000034278D0C3F30B031343CB6121680B6898
:1019800023F0C003E269206A024313430B6021681D
:101990008B6823F4034323F0FF032269E0680243CA
:1019A00013438B602168CB6823F0FF036269A06951
:1019B00002431343CB602268136843F001031360B2
:1019C00000202064202384F83D30206384F83E000A
:1019D00070BD80F83C30FFF781FC82E7294B9842CC
:1019E0008CBF0023012399E74FF4967505FB03F3A1
:1019F000254DA5FB03539B090133A6E7A368BBB99B
:101A0000451E06EB460CB5FBFCF50135C5F30B0591
:101A1000B5FA85F56D0945BBC3B9013806EB460338
:101A2000B0FBF3F30133C3F30B0343F40043A3E729
:101A3000451E06EB860C0CEB8C0CB5FBFCF501355A
:101A4000C5F30B05B5FA85F56D09E4E7013806EB3A
:101A5000860303EB8303B0FBF3F30133C3F30B0300
:101A600043F4404388E7042386E7012384E7012009
:101A700070470120ACE700BFA08601007F841E00F4
:101A800083DE1B43FF083D00D34D62102DE9F04378
:101A900083B004460F46904699460C9E01F042F8EA
:101AA000054694F83D00C0B2202803D0022003B0C0
:101AB000BDE8F0830095192301224B492046FFF72A
:101AC00096FC002840F0898094F83C30012B00F00F
:101AD0008680012384F83C3023681A6812F0010FD5
:101AE00003D11A6842F001021A602268136823F4D5
:101AF00000631360212384F83D30402384F83E3096
:101B0000002323640A9B6362BDF82C306385638DD8
:101B10002385364BE362019500964B464246394693
:101B20002046FFF753FD00285BD1238D002B35D0D5
:101B30002A4631462046FFF71AFD20BB626A236819
:101B400012781A61626A531C6362218D013989B26D
:101B50002185638D9BB2013B9BB2638523685869E5
:101B600010F0040FE1D00029DFD052781A61636AC7
:101B700001336362238D013B2385638D9BB2013B5F
:101B80009BB26385D1E7236C042B01D001208EE743
:101B90002268136843F400731360F7E72A4631465E
:101BA0002046FFF729FE50B1236C042B01D0012001
:101BB0007DE72268136843F400731360F7E7226837
:101BC000136843F400731360202384F83D3000232E
:101BD00084F83E3084F83C3069E7022067E7022051
:101BE00065E7012063E700BF020010000000FFFF6F
:101BF0002DE9F04387B004460F4690469946109E63
:101C000000F090FF054694F83D00C0B2202804D0B3
:101C10000227384607B0BDE8F0830095192301225A
:101C200088492046FFF7E3FB002840F04D8194F8F7
:101C30003C30012B00F04A81012384F83C302368BA
:101C40001A6812F0010F03D11A6842F001021A60FB
:101C50002268136823F400631360222384F83D3064
:101C6000402384F83E30002323640E9B6362BDF85A
:101C70003C306385638D2385734BE3620195009649
:101C80004B46424639462046FFF70CFD07460028E2
:101C900040F01E81238D5BB9029323685A6902923A
:101CA0009A690292029A1A6842F400721A6075E008
:101CB000012B0AD0022B1AD00023059323685A69FE
:101CC00005929B690593059B68E02268136823F4DD
:101CD000806313600023039323685A6903929A690F
:101CE0000392039A1A6842F400721A6056E022685E
:101CF000136823F4806313602268136843F400635D
:101D000013600023049323685A6904929B69049327
:101D1000049B43E02A4631462046FFF79CFD0028FD
:101D200040F0D88023681A69636A1A70636A0133C5
:101D30006362238D013B2385638D9BB2013B9BB284
:101D400063852BE000953346002240492046FFF78B
:101D50004EFB002840F0C0802268136843F40073F3
:101D6000136023681A69636A1A70626A531C63629B
:101D7000238D013B2385638D9BB2013B9BB2638521
:101D800023681B695370636A01336362238D013BCF
:101D90002385638D9BB2013B9BB26385238D002B12
:101DA00000F08980032B53D8012BB3D0022BC9D06C
:101DB00000953346002225492046FFF718FB0028EE
:101DC00040F08C802268136823F4806313602368DA
:101DD0001A69636A1A70636A01336362238D013B77
:101DE0002385638D9BB2013B9BB26385009533468F
:101DF000002216492046FFF7FAFA002870D122681F
:101E0000136843F40073136023681A69636A1A70D5
:101E1000626A531C6362238D013B2385638D9BB2F1
:101E2000013B9BB2638523681B695370636A01336E
:101E30006362238D013B2385638D9BB2013B9BB283
:101E40006385ABE7020010000000FFFF0400010003
:101E50002A4631462046FFF7FEFC002842D123687F
:101E60001A69636A1A70636A01336362228D013AE8
:101E700092B22285638D9BB2013B9BB2638523683E
:101E8000596911F0040F89D0032A0FD023681A6909
:101E9000636A1A70636A01336362238D013B238591
:101EA000638D9BB2013B9BB2638577E71A6822F48E
:101EB00080621A60EAE7202384F83D30002384F82A
:101EC0003E3084F83C30A4E60227A2E60227A0E6D2
:101ED00001279EE601279CE601279AE6012798E65E
:101EE000012796E6012794E62DE9F04385B00446E4
:101EF000884691461D4600F015FE94F83D30DBB251
:101F0000202B03D0022005B0BDE8F08306460090E8
:101F10001923012257492046FFF769FA002840F0AB
:101F2000A08094F83C30012B00F09D80012384F8C0
:101F30003C3023681A6812F0010F03D11A6842F08E
:101F400001021A602268136823F4006313602423DB
:101F500084F83D3000272764474BE36240E0236864
:101F60001B6813F4807F02D04FF4007323640320B6
:101F7000C9E7A02384F83D3022685369C3F34003C6
:101F80005269C2F3802294F83DC05FFA8CFCBCF128
:101F9000A00F09D043B93AB900F0C4FD801BA84294
:101FA000E7D8002DE8D1E4E7202384F83D3023680A
:101FB0005A6912F0020F31D11A6842F400721A60A5
:101FC00023686FF480625A6100961923012229491F
:101FD0002046FFF70CFA002849D101374F4538D287
:101FE0002268136843F48073136000962B46002226
:101FF0004FF001112046FFF7FAF90028AFD123680E
:1020000008F0FE021A6100F08DFD06462268536951
:10201000C3F340035269C2F38022B4E71A6842F462
:1020200000721A600023039323685A6903929B6924
:102030000393039B0096192301220E492046FFF7C4
:10204000D6F990B9202384F83D30002384F83C3041
:1020500059E7202384F83D30002384F83C300120E8
:1020600051E702204FE702204DE701204BE7012016
:1020700049E700BF020010000000FFFF002800F049
:10208000E08170B582B00446036813F0010F3BD0C5
:102090009F4B9B6803F00C03042B2CD09C4B9B683C
:1020A00003F00C03082B21D06368B3F5803F4FD0B9
:1020B000B3F5A02F52D0964B1A6822F480321A60E2
:1020C0001A6822F480221A606368002B50D000F056
:1020D00029FD05468E4B1B6813F4003F14D100F018
:1020E00021FD401B6428F5D90320B1E1884B5B68D2
:1020F00013F4800FD8D0864B1B6813F4003F03D035
:102100006368002B00F09F81236813F0020F54D006
:102110007F4B9B6813F00C0F3ED07D4B9B6803F008
:102120000C03082B33D0E368002B68D0794B0122D5
:102130001A6000F0F7FC0546754B1B6813F0020FA0
:1021400054D100F0EFFC401B0228F5D903207FE1B9
:102150006F4A136843F480331360B5E76C4B1A6819
:1021600042F480221A601A6842F480321A60ABE7A7
:1021700000F0D8FC0546664B1B6813F4003FC3D043
:1021800000F0D0FC401B6428F5D9032060E1604BCF
:102190005B6813F4800FC6D15D4B1B6813F0020F10
:1021A00003D0E368012B40F05081594A136823F0B3
:1021B000F803216943EAC1031360236813F0080F91
:1021C00042D063696BB3534B0122C3F8802E00F0F9
:1021D000A9FC05464E4B5B6F13F0020F34D100F0A3
:1021E000A1FC401B0228F5D9032031E1484A1368BD
:1021F00023F0F803216943EAC1031360DDE7454B8F
:1022000000221A6000F08EFC0546414B1B6813F05B
:10221000020FD2D000F086FC401B0228F5D9032023
:1022200016E13C4B0022C3F8802E00F07BFC0546F3
:10223000374B5B6F13F0020F06D000F073FC401BAE
:102240000228F5D9032003E1236813F0040F77D0A7
:102250002F4B1B6C13F0805F33D1002301932C4B69
:102260001A6C42F080521A641B6C03F08053019385
:10227000019B0125284B1B6813F4807F23D0A368A2
:10228000012B34D0052B38D0214B1A6F22F00102DC
:102290001A671A6F22F004021A67A368002B3DD058
:1022A00000F040FC06461A4B1B6F13F0020F46D19C
:1022B00000F038FC801B41F288339842F3D90320A8
:1022C000C6E00025D6E7144A136843F48073136010
:1022D00000F028FC0646104B1B6813F4807FCED11B
:1022E00000F020FC801B0228F5D90320B0E0084A4A
:1022F000136F43F001031367CFE7054B1A6F42F0EA
:1023000004021A671A6F42F001021A67C5E700BF9C
:1023100000380240000047420070004000F002FC1C
:102320000646524B1B6F13F0020F08D000F0FAFB69
:10233000801B41F288339842F3D9032088E0EDB93D
:10234000A369002B00F08380484A926802F00C02D7
:10235000082A51D0022B17D0454B00221A6600F0F4
:10236000E1FB0446414B1B6813F0007F42D000F0B4
:10237000D9FB001B0228F5D9032069E03B4A136C06
:1023800023F080531364DBE7394B00221A6600F018
:10239000C9FB0546354B1B6813F0007F06D000F0E3
:1023A000C1FB401B0228F5D9032051E0E369226AF2
:1023B0001343626A43EA8213A26A5208013A43EA6B
:1023C0000243E26A43EA0263284A5360284B01222F
:1023D0001A6600F0A7FB0446244B1B6813F0007F2D
:1023E00006D100F09FFB001B0228F5D903202FE047
:1023F00000202DE000202BE0012B2BD01B4B5B6835
:1024000003F48001E269914226D103F03F02216A80
:102410008A4223D1616A47F6C0721A40B2EB811F2B
:102420001ED103F44031A26A5208013AB1EB024FC7
:1024300018D103F07063E26AB3EB026F14D100208D
:1024400006E001207047012002E0012000E00020AA
:1024500002B070BD0120FBE70120F9E70120F7E79A
:102460000120F5E70120F3E70120F1E70038024001
:102470000000474208B5314B9B6803F00C03042B66
:1024800057D0082B57D12D4B5A6802F03F025B689A
:1024900013F4800F2AD0294B5968C1F3881C4FEAE6
:1024A0004C11B1EB0C006EEB0E0E4FEA8E1343EAAB
:1024B00090638101091A63EB0E03DB0043EA517359
:1024C000C90011EB0C0C43F10003590200234FEA41
:1024D0004C2041EADC51FEF7BFFB184B5B68C3F3AD
:1024E000014301335B00B0FBF3F025E0134B596867
:1024F000C1F3881C4FEA4C11B1EB0C006EEB0E0ED1
:102500004FEA8E1343EA90638101091A63EB0E03CD
:10251000DB0043EA5173C90011EB0C0C43F10003DB
:10252000990200234FEA8C2041EA9C51FEF794FB6C
:10253000D3E7034800E0034808BD00BF003802406D
:1025400000127A000024F400002800F09B8070B58F
:102550000D4604464F4B1B6803F007038B4208D21D
:10256000CBB24C4A1370136803F007038B4240F060
:102570008B80236813F0020F17D013F0040F04D0E0
:10258000454A936843F4E0539360236813F0080FBF
:1025900004D0414A936843F4604393603E4A936891
:1025A00023F0F003A1680B439360236813F0010F3D
:1025B00032D06368012B21D09A1E012A25D9364AD0
:1025C000126812F0020F61D033498A6822F00302C8
:1025D00013438B6000F0A6FA06462F4B9B6803F06E
:1025E0000C036268B3EB820F16D000F09BFA801BDD
:1025F00041F288339842F0D9032042E0264A12681B
:1026000012F4003FE0D101203BE0234A126812F0AF
:10261000007FD9D1012034E01E4B1B6803F0070373
:10262000AB4207D9EAB21B4B1A701B6803F00703D1
:10263000AB422DD1236813F0040F06D0164A9368DD
:1026400023F4E053E1680B439360236813F0080F11
:1026500007D0114A936823F46043216943EAC10318
:102660009360FFF707FF0C4B9B68C3F303130B4A00
:10267000D35CD8400A4B18600A4B186800F006FA81
:10268000002070BD012070470120FAE70120F8E723
:102690000120F6E7003C0240003802409076000836
:1026A0000800002004000020014B1868704700BF9C
:1026B0000800002008B5FFF7F7FF044B9B68C3F341
:1026C0008223034AD35CD84008BD00BF00380240D3
:1026D000A076000808B5FFF7E7FF044B9B68C3F33B
:1026E0004233034AD35CD84008BD00BF00380240E3
:1026F000A076000800230F2B00F2D28070B582B0C4
:1027000060E085685E000324B44025EA0405CC68D7
:10271000B4402C438460456825EA02054C68C4F344
:1027200000129A402A4342605AE0DC08083450F80C
:10273000246003F0070295000F22AA4026EA020E49
:102740000A69AA4042EA0E0240F824205CE0042212
:1027500000E0002202FA0EF22A430234514D45F8FD
:102760002420514A94686FEA0C0224EA0C054E6852
:1027700016F4801F01D04CEA04054B4CA560E468B8
:1027800002EA04054E6816F4001F01D04CEA040565
:10279000454CE560646802EA04054E6816F4003FA3
:1027A00001D04CEA0405404C6560246822404D6825
:1027B00015F4803F01D04CEA04023B4C2260013307
:1027C0000F2B6BD801229A400C6804EA020C32EA03
:1027D0000404F4D14C6804F00304013C012C90D9AA
:1027E0004A6802F00302032A09D0C4685D0003228C
:1027F000AA4024EA02048A68AA402243C2604A68C6
:1028000002F00302022A90D004684FEA430E03222A
:1028100002FA0EF224EA02044A6802F0030202FA03
:102820000EF2224302604A6812F4403FC7D00022F1
:1028300001921E4A546C44F480445464526C02F475
:1028400080420192019A9C08A51C164A52F8255014
:1028500003F003024FEA820E0F2202FA0EF225EA7B
:102860000205134A90423FF474AF02F58062904231
:102870000ED002F5806290420CD002F58062904248
:102880000AD002F5806290423FF461AF072261E70F
:1028900001225FE702225DE703225BE702B070BD21
:1028A000704700BF00380140003C01400038024042
:1028B0000000024000230F2B7CD8F0B52DE004254A
:1028C00000E0002505FA0CFCA44557D004685D0023
:1028D0004FF0030C0CFA05FC24EA0C0404604FEAE8
:1028E000D30E0EF1080E50F82E4003F00705AE008F
:1028F0000F25B54024EA050440F82E40C46824EAB8
:102900000C04C460446824EA02024260826822EA3D
:102910000C02826001330F2B4BD801229A4002EA4D
:10292000010632EA0104F5D14FEA930E0EF10205D9
:10293000214C54F8254003F0030C4FEA8C0C0F2572
:1029400005FA0CF73C401D4DA842BAD005F580654C
:10295000A8420DD005F58065A8420BD005F580652D
:10296000A84209D005F58065A842A8D00725A9E7A7
:102970000125A7E70225A5E70325A3E7104C256855
:1029800025EA06052560656825EA06056560E568AF
:1029900025EA0605E560A56825EA0606A660064E56
:1029A0000EF1020456F8245025EA070546F8245093
:1029B0008CE7F0BD704700BF0038014000000240C6
:1029C000003C01400AB18161704709048161704790
:1029D000074AD36823F4E0631B041B0C000200F4D5
:1029E000E060034343F0BF6343F40033D3607047B8
:1029F00000ED00E000B5194BDB68C3F30223C3F11F
:102A0000070CBCF1040F28BF4FF0040C03F1040EB7
:102A1000BEF1060F18D9033B4FF0FF3E0EFA0CFC37
:102A200021EA0C0199400EFA03F322EA0303194349
:102A300000280BDB0901C9B200F1604000F56140DC
:102A400080F800135DF804FB0023E5E700F00F00B9
:102A50000901C9B2024B1954F4E700BF00ED00E0D0
:102A600014ED00E00138B0F1807F0BD24FF0E0238D
:102A70005861054AF02182F823100020986107224E
:102A80001A6170470120704700ED00E010B5044660
:102A90000E4B18784FF47A73B3FBF0F30C4A1068BE
:102AA000B0FBF3F0FFF7DEFF68B90F2C01D901206E
:102AB0000AE0002221464FF0FF30FFF79BFF054B55
:102AC0001C60002000E0012010BD00BF00000020BD
:102AD000080000200400002008B50B4B1A6842F4DF
:102AE00000721A601A6842F480621A601A6842F42E
:102AF00080721A600320FFF76BFF0020FFF7C6FF0C
:102B0000FEF7CCFB002008BD003C0240034A1168E0
:102B1000034B1B780B441360704700BFB4020020C6
:102B200000000020014B1868704700BFB40200206D
:102B300038B50446FFF7F6FF0546B4F1FF3F02D073
:102B4000044B1B781C44FFF7EDFF401BA042FAD357
:102B500038BD00BF00000020026802F10C0353E8FA
:102B6000003F23F490730C3242E800310029F3D186
:102B7000026802F1140353E8003F23F0010314320A
:102B800042E800310029F3D1036B012B05D020234B
:102B900080F84230002303637047026802F10C039F
:102BA00053E8003F23F010030C3242E800310029C3
:102BB000F3D1ECE738B504460268136923F44053B7
:102BC000C1680B431361836802691343426913436D
:102BD000C2691A430168CB6823F4164323F00C033F
:102BE0001343CB600268536923F4407381690B433C
:102BF00053610368314A934206D002F580629342E2
:102C000002D0FFF757FD01E0FFF764FDE369B3F57C
:102C1000004F29D00021031849411B1841F1000140
:102C2000C90041EA5371DB00181863684FEA830258
:102C30004FEA937341F10001FEF70EF8204DA5FB1A
:102C400000325109642303FB11031B013233A5FB3E
:102C500003235B0903F0F00202EB011203F00F0300
:102C6000216813448B6038BD0023021843EB030135
:102C7000121841F10001C90041EA5271D200101846
:102C800041F10001626892185B41FDF7E5FF0C4DD0
:102C9000A5FB00325109642303FB1103DB0032332F
:102CA000A5FB03235B095A0002F4F87202EB011240
:102CB00003F00703216813448B60D4E70010014040
:102CC0001F85EB512DE9F04383B005460E461746AC
:102CD0009946DDF828802C68246836EA04030CBF86
:102CE0004FF0010C4FF0000CBC4528D1B8F1FF3F6C
:102CF000F1D0FFF717FFA0EB0900404523D8B8F14A
:102D0000000F22D02B68DA6812F0040FE3D0802E77
:102D1000E1D0402EDFD01A6812F0080FDBD000247B
:102D200001941A6801925B680193019B2846FFF7A2
:102D300013FF08236B6485F84040012000E0002069
:102D400003B0BDE8F0830320FAE70320F8E760B39F
:102D500010B5044690F8413013B3242384F8413071
:102D60002268D36823F40053D3602046FFF722FF84
:102D70002268136923F4904313612268536923F096
:102D80002A0353612268D36843F40053D3600020C0
:102D90006064202384F8413084F84230606310BDC1
:102DA00080F84030FEF7D2FAD7E7012070472DE9CE
:102DB000F04182B01E4690F84130DBB2202B56D154
:102DC00004460D469046002955D00AB901204FE02F
:102DD00000234364212380F84130FFF7A3FE074618
:102DE000A4F82480A4F82680A368B3F5805F02D0FD
:102DF0004FF0000814E023692BB34FF000080FE0F8
:102E0000202384F84130032032E038F8023B226866
:102E1000C3F308035360E28C92B2013A92B2E284A7
:102E2000E38C9BB293B100963B4600228021204662
:102E3000FFF748FF0028E3D1002DE6D015F8012B5D
:102E400023685A60E7E7A8460025E9E700963B4675
:102E5000002240212046FFF735FF18B9202384F8CF
:102E6000413005E0202384F84130032000E00220B7
:102E700002B0BDE8F0810120FAE70000DFED227A20
:102E800020EE270AF5EE007A30EE270AFDEEC07A32
:102E9000B5EEC00AF1EE10FA2FD4F8EEE77A30EE74
:102EA000670ADFED1A7A20EE270AFCEEC07A17EEE9
:102EB000903A9BB2B3F5007F04D3DFED147A30EE85
:102EC000670A002307EE903AF8EE677A30EE670A59
:102ED0000F4A02EB8301D1ED006A013302EB830359
:102EE00093ED007AF7EE007A77EEC07A67EEA67A75
:102EF00020EE070A37EE800A704717EE903A013B42
:102F000007EE903AC9E700BF83F9223E0000004473
:102F10008C6E000810B4F5EEC00AF1EE10FA1ADC5F
:102F2000F5EEC00AF1EE10FA60D4F5EE400AF1EECB
:102F300010FA40F00C81B5EEC00AF1EE10FA00F381
:102F40000281B5EEC00AF1EE10FA40F10381834B25
:102F50000360002030E080EE207AB5EEC07AF1EE1A
:102F600010FA0DD40024F7EE007AB4EEE77AF1EE11
:102F700010FA37DDC7EE876A0123DFED797A0FE0BB
:102F8000B1EE477A0124EEE766EEA77AC3F10901B4
:102F9000744A02EB810292ED007A77EE877A013370
:102FA000092BF1DD9FED707A77EE677A0CB1F1EEC7
:102FB000677AC0ED007A00205DF8044B704767EE39
:102FC000277AC3F10901674A02EB8102D2ED006A58
:102FD00077EEA67A0133092BF1DD9FED647A77EE67
:102FE000877AE3E70123DFED5E7AF4E7B5EEC00A06
:102FF000F1EE10FA4CDD80EE207AB5EEC07AF1EEFB
:1030000010FA1BD40024F7EE007AB4EEE77AF1EE62
:1030100010FA39DDC7EE876A0123DFED517A092BFB
:1030200010DC66EEA77AC3F109014E4A02EB810279
:1030300092ED007A77EE877A0133F0E7B1EE477AC6
:103040000124E0E79FED487A77EE677A0CB1F1EE64
:10305000677A9FED477A77EE877AC0ED007A002095
:10306000AAE767EE277AC3F109013E4A02EB810223
:10307000D2ED006A77EEA67A0133092BF1DD9FEDE0
:103080003B7A77EE877AE1E70123DFED357AF4E7E3
:10309000B5EEC00AF1EE10FA06D410EE103A002B8D
:1030A0004EDA344B0360DAE780EE207AB5EEC07A70
:1030B000F1EE10FA0DD40024F7EE007AB4EEE77AC0
:1030C000F1EE10FA38DDC7EE876A0123DFED247ACE
:1030D0000FE0B1EE477A0124EEE766EEA77AC3F17E
:1030E0000901204A02EB810292ED007A77EE877A9D
:1030F0000133092BF1DD9FED1C7A77EE677A0CB175
:10310000F1EE677A9FED1A7A77EEC77AC0ED007A12
:10311000A5E767EE277AC3F10901124A02EB8102A3
:10312000D2ED006A77EEA67A0133092BF1DD9FED2F
:103130000F7A77EE877AE2E70123DFED097AF4E789
:103140000D4B03608BE70D4B0360002034E76FF0FD
:10315000030031E76FF003002EE700BFDB0FC9BFAC
:10316000A59204BD646E0008DB0FC93F000000009B
:10317000DB0F4940DB0F49C0DB0F4940DB0FC93F84
:10318000DFED207A20EE270AFDEEC07AB5EEC00A08
:10319000F1EE10FA2FD4F8EEE77A30EE670ADFEDA1
:1031A0001A7A20EE270AFCEEC07A17EE903A9BB20C
:1031B000B3F5007F04D3DFED147A30EE670A002305
:1031C00007EE903AF8EE677A30EE670A0F4A02EBA4
:1031D0008301D1ED006A013302EB830393ED007AA2
:1031E000F7EE007A77EEC07A67EEA67A20EE070A4D
:1031F00037EE800A704717EE903A013B07EE903A9F
:10320000C9E700BF83F9223E000000448C6E00082D
:103210002DE9F04106460D4614469846002708E081
:1032200022462946304600F05FF81036103510343B
:1032300001374745F4D3BDE8F0812DE9F04F85B063
:1032400007460E460392002548E02C0107EB051BBC
:103250009BED000A20EE000A231D009307EB030AF2
:10326000DAED007A67EEA77A30EE270A04F1080259
:10327000019207EB0209D9ED007A67EEA77A30EEEA
:10328000270A04F10C01029107EB0108D8ED007A3E
:1032900067EEA77A30EE270A03F07EFC9BED007AFA
:1032A0003444C7EE007AC4ED007A9AED007A009BB0
:1032B000F318C7EE007AC3ED007A99ED007A019A0F
:1032C000B318C7EE007AC3ED007A98ED007A029940
:1032D0007318C7EE007AC3ED007A0135039B9D4257
:1032E000B3D305B0BDE8F08FD0ED007A91ED007A50
:1032F00067EE877A90ED017AD1ED016A27EE267AA2
:1033000077EEC77A90ED027AD1ED026A27EE267A3F
:1033100077EEC77A90ED037AD1ED036A27EE267A2D
:1033200077EEC77AC2ED007AD0ED007A91ED017A9E
:1033300067EE877A90ED017AD1ED006A27EE267A62
:1033400077EE877A90ED027AD1ED036A27EE267A3E
:1033500077EE877A90ED037AD1ED026A27EE267A2E
:1033600077EEC77AC2ED017AD0ED007A91ED027A5C
:1033700067EE877A90ED027AD1ED006A27EE267A21
:1033800077EE877A90ED037AD1ED016A27EE267AFF
:1033900077EE877A90ED017AD1ED036A27EE267AEF
:1033A00077EEC77AC2ED027AD0ED007A91ED037A1A
:1033B00067EE877A90ED037AD1ED006A27EE267AE0
:1033C00077EE877A90ED017AD1ED026A27EE267AC0
:1033D00077EE877A90ED027AD1ED016A27EE267AB0
:1033E00077EEC77AC2ED037A70470000034AD2F83D
:1033F000883043F47003C2F88830704700ED00E075
:1034000010B503460C4A0D490D48006840B10C4800
:1034100000680344521A934206D8094A136010BD4B
:103420000748084C0460F2E700F0D2FB0C2303606D
:103430004FF0FF30F3E700BF00000220000400005F
:10344000B8020020E80200200120704708B500F013
:10345000BFFB162303604FF0FF3008BD08B54FF0E7
:10346000FF31FFF7F3FFFEE770B50C461646002567
:1034700006E0AFF30080214601F8010B01350C4650
:10348000B542F6DB304670BD70B50C4616460025D9
:1034900004E014F8010BAFF300800135B542F8DB0E
:1034A000304670BD4FF0FF3070474FF400534B6013
:1034B00000207047012070470020704710B586B08B
:1034C00064230293012301930DF1170200927522E8
:1034D000D0214648FEF78CFB002862D19DF81730BA
:1034E000682B62D0424801F095F880238DF81730A0
:1034F00064230293012301930DF1170200926B22C2
:10350000D0213A48FEF7C2FA0446002851D164207F
:10351000FFF70EFB00238DF817306423029301237D
:1035200001930DF1170200926B22D0212F48FEF774
:10353000ADFA002842D100238DF81730642302939E
:10354000012301930DF1170200921B22D02127487D
:10355000FEF79CFA002837D100238DF8173064233A
:103560000293012301930DF1170200921C22D02136
:103570001E48FEF78BFA68BB01238DF817306422D2
:10358000029201930DF1170200921A22D0211748DE
:10359000FEF77CFA20BB2146164800F0B5FF06B0C6
:1035A00010BD154801F036F8F9E7144801F032F87B
:1035B0009BE7134801F02EF80124A8E7104801F01A
:1035C00029F80134E4B2B6E70D4801F023F80134DC
:1035D000E4B2C1E70A4801F01DF80134E4B2CBE7D8
:1035E000074801F017F80134E4B2D4E714020020D0
:1035F000D076000814770008A8760008BC7600088A
:10360000E876000800B589B064230293062301938D
:1036100006AB009301233B22D0215648FEF7E8FA7F
:10362000002840F09E80642302930623019304AB9C
:10363000009301234322D0214E48FEF7D9FA0028F7
:1036400040F093809DF818209DF8193043EA02233A
:103650001BB207EE903AF8EEE76A474AC2ED006AFD
:103660009DF81A109DF81B3043EA01231BB207EEA8
:10367000903AB8EEE77A82ED017A9DF81C109DF839
:103680001D3043EA01231BB207EE903AF8EEE77AC9
:10369000C2ED027ADFED395A66EEA56A9FED386A0F
:1036A00066EE666AC2ED006A27EE257A26EE477A54
:1036B00082ED017A67EEA57A67EE867A77EEC67AB2
:1036C000F1EE677AC2ED027A9DF812209DF8133070
:1036D00043EA02231BB207EE903AF8EEE76A294A62
:1036E000C2ED006A9DF810109DF8113043EA0123E5
:1036F0001BB207EE903AB8EEE77A82ED017A9DF8B8
:1037000014109DF8153043EA01231BB207EE903ADE
:10371000F8EEE77AC2ED027A9FED1B5A86EE856AD3
:10372000DFED1A5A66EE256A9FED196A76EEC66AD3
:10373000C2ED006AC7EE056A26EEA57ADFED156ACE
:1037400037EE267A82ED017A87EE857A67EE257A62
:103750009FED117A77EEC77AC2ED027A09B05DF873
:1037600004FB0E4800F056FF5DE70C4800F052FFE6
:1037700068E700BF14020020BC020020000080386F
:103780000AE81C41C80200200000034339FA8E3CBD
:103790002CDC263D0CF9983CFE9A3E3CE87600086D
:1037A000F8B504460D460868FCF7D6FE28A3D3E911
:1037B0000023FCF729FF06460F462068FCF7CCFEE5
:1037C00025A3D3E90023FCF71FFF02460B46304632
:1037D0003946FCF763FDFDF7EFF920606868FCF7F8
:1037E000BBFE1BA3D3E90023FCF70EFF06460F46E2
:1037F0006068FCF7B1FE18A3D3E90023FCF704FFCF
:1038000002460B4630463946FCF748FDFDF7D4F931
:103810006060A868FCF7A0FE0DA3D3E90023FCF7C5
:10382000F3FE06460F46A068FCF796FE0AA3D3E90E
:103830000023FCF7E9FE02460B4630463946FCF70A
:103840002DFDFDF7B9F9A060F8BD00BFAFF3008012
:103850007B14AE47E17A943F5C8FC2F5285CEF3F62
:1038600030B587B000240194029403940494059425
:103870004FF4407301930123029301A91848FEF706
:1038800039FF13E0164D01224FF480712846FFF7EF
:1038900099F80220FFF74CF900224FF48071284676
:1038A000FFF790F80220FFF743F901340E2CE9DD11
:1038B0000B4C01224FF480712046FFF783F8012260
:1038C0004FF400712046FFF77DF80520FFF730F92F
:1038D0004FF440712046FEF7EDFF07B030BD00BF4A
:1038E00000040240F5EEC00AF1EE10FA02DBB0EE81
:1038F000C00A7047B0EEC00AB1EE400A70470368D4
:103900000B6043684B6083688B60C368CB60704713
:1039100003680B6043684B6083688B60C368CB604F
:103920007047000088B0B7EE000A8DED040ADFEDA5
:10393000071ACDED051ACDED061ACDED071AF0EEFA
:10394000610AB0EE611A08B0704700BF00000000C5
:1039500000B52DED068B8DB0B0EE40AAF0EE609A6A
:10396000B0EE419AB0EE618A60EE007A20EEA00AD5
:1039700077EE807A21EE010A37EE800AB5EEC00AB2
:10398000F1EE10FA1FDB03F007F9F0EE408AF5EED6
:10399000408AF1EE10FA19D1FFF7C4FF8DED080A45
:1039A000CDED090A8DED0A1ACDED0B1A9DED080A31
:1039B000DDED090A9DED0A1ADDED0B1A0DB0BDEC27
:1039C000068B5DF804FBDFED178AE0E728EE288A16
:1039D000F6EE001A28EE218AB0EE480AFFF7D0FB77
:1039E000F0EE40AAB0EE480AFFF748FA8DED040A5F
:1039F000CAEE287A67EEAA7ACDED057AC9EEA87AE2
:103A000067EEAA7ACDED067A89EE280A60EE2AAA38
:103A1000CDED07AA04AB0FCB0DF1300C0CE90F0074
:103A2000C4E700BF0000000010B52DED068B84B088
:103A30008DED000ACDED010A8DED021ACDED031AD0
:103A4000002849D00446B0EE408AF0EE609A20EE9D
:103A5000200AB0EE41AAB0EE619A61EE217A30EE12
:103A6000270A60EEA00A61EE018A70EEA80A70EEE5
:103A7000A00AF7EE00AA7AEEE00A30EE000AFFF79D
:103A800049FA68EE0A0A29EE890A70EEC00A70EE59
:103A9000A00AF0EEE07AF4EEEA7AF1EE10FA1FDB1B
:103AA0009FED130AFFF71EFF84ED010A28EE098A35
:103AB00029EE8A0A38EE000A29EE099A78EE898AF8
:103AC00078EEA88A04F10800F7EE000A70EEE80A22
:103AD00030EE000AFFF71EFA04B0BDEC068B10BDF5
:103AE000B0EE600A03F02CF884ED010ADEE700BFB7
:103AF000DB0FC93F10B59CB08DED040ACDED050A72
:103B00008DED061ACDED071AF0EE631AB0EE431AEA
:103B1000F0EE620AB0EE420AFFF71AFF8DED140ACA
:103B2000CDED150A8DED161ACDED171A04AC10A9BE
:103B30002046FFF7E4FE0CA914A8FFF7E0FE0123DE
:103B400008AA0CA910A8FFF763FB012208A90846E0
:103B5000FFF773FB214608A8FFF7DAFE94E80F0091
:103B60001CAC04E90F009DED180ADDED190A9DED6E
:103B70001A1ADDED1B1A1CB010BD0000DFF834D09E
:103B8000FFF734FC0C480D490D4A002302E0D458DD
:103B9000C4500433C4188C42F9D30A4A0A4C002397
:103BA00001E013600432A242FBD300F017F8FDF7E6
:103BB000B1FA70470000022000000020DC01002064
:103BC000647B0008DC010020E4020020FEE7000026
:103BD000014B1868704700BF0C00002070B50D4DF8
:103BE0000D4C641BA4100026A64209D10B4D0C4CB1
:103BF00003F00CF9641BA4100026A64205D170BD89
:103C000055F8043B98470136EEE755F8043B9847D2
:103C10000136F2E75C7B00085C7B00085C7B0008F7
:103C2000607B000802440346934200D1704703F8CA
:103C3000011BF9E72DE9FF4755EC104B002D0E460F
:103C400019462B46BBBF05F100431D4600232D231B
:103C50000B700D9BDDF830A0914623F02008BCBF0F
:103C600022461446B8F1460F05D0B8F1450F00D1F1
:103C70000136022100E0032103AB019302AB009364
:103C800045EC104B5346324600F04EFEB8F1470F5C
:103C9000074602D119F0010F22D0B8F1460F07EB09
:103CA000060910D13B78302B0AD100220023204690
:103CB0002946FCF711FF18B9C6F10106CAF80060E1
:103CC000DAF8003099440022002320462946FCF708
:103CD00003FF08B1CDF80C903022039B4B4507D36E
:103CE000039B0E9ADB1B3846136004B0BDE8F087D7
:103CF000591C03911A70F0E7F7B503460029B8BFC5
:103D0000494203F8022BB4BF2D222B22092942700D
:103D10002ADD0DF10704A4460A27A6460A4691FBB0
:103D2000F7F607FB16153035632A04F1FF340EF859
:103D3000015C3146F1DC3031AEF1020504F8011CC2
:103D4000441C294661450AD30DF10902A2EB0E027B
:103D5000654588BF00221344181A03B0F0BD11F85E
:103D6000012B04F8012FEDE7302330318370C1704F
:103D7000031DF1E72DE9F04F2DED028B8DB00C46C0
:103D8000DDF8608016461F46054601F073FDD0F849
:103D900000A05046FCF724FA00230A9323680593F9
:103DA000D8F8003094F818B0073323F0070303F174
:103DB0000802C8F80020D3E90023C4E91223D4E99B
:103DC000128929F000430793CDF8188008EE100AF5
:103DD0009F4BDDE906014FF0FF32FCF7AFFE88BBD9
:103DE000DDE906019A4B4FF0FF32FCF789FE48BB34
:103DF0000022002340464946FCF778FE10B12D23EF
:103E000084F84330934B9448BBF1470F94BF9846D6
:103E1000804603232361059B23F0040222604FF0B8
:103E20000009009733460BAA2146284600F0D8F92E
:103E3000013040F090804FF0FF300DB0BDEC028BB0
:103E4000BDE8F08F42464B4640464946FCF776FEB9
:103E500040B14B46002BBCBF2D2384F843307F4834
:103E60007F4BD1E763680BF0DF0206925A1C3FD10B
:103E700006236360059B616843F48062002303931B
:103E80000AABCDE901B309AB49EC108B009322607A
:103E90000DF123032846FFF7CDFE069B0999472B1A
:103EA000804608D1C81C02DB6368994241DDABF152
:103EB000020B5FFA8BFBBBF1650F20D801395A4624
:103EC00004F150000991FFF717FF0A9A1318012A0D
:103ED0008146236102DC2268D20701D501332361C8
:103EE0009DF82330002B9CD02D2384F8433098E795
:103EF000069A472ABED1002BBCD10123B9E7BBF1FA
:103F0000660F18D1002963680BDD216113B922689F
:103F1000D00702D501330B442361A1654FF000099E
:103F2000DEE713B92268D20701D50233F4E7012393
:103F3000F2E74FF0670B0A9B994205DB236821618A
:103F4000D807EAD54B1CE7E70029D4BFC1F102022C
:103F500001221344E0E723685A0507D42369424647
:103F600031462846B84701302CD164E7BBF1650FD4
:103F700040F2E080D4E9120100220023FCF7ACFDFE
:103F8000002834D0374A012331462846B84701304B
:103F90003FF451AFDDE909239A4202DB2368D807D9
:103FA00010D518EE103A524631462846B84701302F
:103FB0003FF441AF4FF0000804F11A090A9B013B9E
:103FC000434509DC23689B0700F10581E0680B9BF2
:103FD0009842B8BF184630E701234A463146284682
:103FE000B84701303FF427AF08F10108E6E7099B25
:103FF000002B39DC1B4A012331462846B8470130E3
:104000003FF419AFDDE90923134302D12368D9072F
:10401000D8D518EE103A524631462846B8470130F6
:104020003FF409AF4FF0000904F11A0A099B5B4203
:104030004B4501DC0A9B92E7012352463146284654
:10404000B84701303FF4F7AE09F10109EEE700BFD0
:10405000FFFFEF7F387700083C77000844770008BF
:1040600040770008487700080A9AA36D9A42A8BFD3
:104070001A46002A914637DC4FF0000B29EAE9790D
:1040800004F11A02A36D0593A3EB09035B4533DC2E
:10409000DDE909239A423BDB2368DA0738D40A9B1F
:1040A000059A09999A1AA3EB01099145A8BF91466F
:1040B000B9F1000F35DC4FF0000829EAE97904F185
:1040C0001A0ADDE909239B1AA3EB090343457FF78D
:1040D00079AF0123524631462846B84701303FF4B4
:1040E000AAAE08F10108ECE71346314642462846DD
:1040F000B8470130C0D19EE60123314628460592DB
:10410000B84701303FF497AE059A0BF1010BB9E7C0
:1041100018EE103A524631462846B8470130BED113
:1041200089E6059A4B46424431462846B847013055
:10413000C1D180E60A9A012A01DCDB0738D50123C8
:10414000424631462846B84701303FF474AE18EE77
:10415000103A524631462846B84701303FF46BAE1C
:10416000D4E9120100220023FCF7B6FCD8B90A9B5F
:1041700008F10102013B31462846B84701300ED113
:1041800059E60123524631462846B84701303FF4EC
:1041900052AE08F101080A9B013B4345F1DC4B4656
:1041A00004F15002DCE64FF0000804F11A0AF2E7CD
:1041B00001234246DFE701234A4631462846B847F5
:1041C00001303FF438AE08F10108E3680B995B1A3F
:1041D0004345F0DCFAE64FF0000804F11909F4E772
:1041E0002DE9F047164699468A680B69DDF820806C
:1041F0009342B8BF1346336091F8432007460C46FC
:104200000AB1013333602368990642BF3368023331
:104210003360256815F0060506D104F1190AE36834
:1042200032689B1AAB4226DC94F84320131E2268A6
:1042300018BF012392062BD404F1430249463846A5
:10424000C04701301ED02368E568326803F00603DA
:10425000042B08BFAD1AA36822690CBF25EAE575D7
:1042600000259342C4BF9B1AED1800261A34B542AC
:104270001AD1002008E00123524649463846C0477B
:10428000013003D14FF0FF30BDE8F0870135C6E7BC
:10429000E1185A1C302081F84300224494F845105C
:1042A00082F843100233C7E70123224649463846C5
:1042B000C0470130E6D00136D9E700002DE9FF47BD
:1042C0000F7E0C9D782F914680460C469A4601F150
:1042D000430207D8622F0AD8002F00F0D880582F49
:1042E00000F0A38004F1420584F842703AE0A7F19F
:1042F0006303152BF6D801A151F823F055430008AC
:1043000069430008E5420008E5420008E54200086C
:10431000E542000869430008E5420008E54200085C
:10432000E5420008E542000875440008994300088A
:1043300057440008E5420008E54200089744000899
:10434000E542000899430008E5420008E5420008FC
:104350005F4400082B681A1D1B682A6004F142059F
:1043600084F842300123A3E020682968060601F1A1
:1043700004030AD50E682B60002E03DA2D23764243
:1043800084F843305E480A2319E00E682B6010F071
:10439000400F18BF36B2EFE72B682068191D29605F
:1043A000010601D51E6802E04606FBD51E8854486A
:1043B0006F2F0CBF08230A23002184F8431065687F
:1043C000A560002DA2BF216821F0040121600EB973
:1043D000002D4DD01546B6FBF3F103FB1167C75D09
:1043E00005F8017D3746BB420E46F4D9082B0BD1A8
:1043F0002368DE0708D5236961689942DEBF302350
:1044000005F8013C05F1FF35521B2261CDF800A0F3
:104410004B4603AA21464046FFF7E2FE01304CD14D
:104420004FF0FF3004B0BDE8F087354881F84570A3
:104430002968236851F8046B29601D0614D5DF072D
:1044400044BF43F0200323601EB9236823F02003F8
:1044500023601023B0E7236843F020032360782310
:10446000284884F84530E3E7590648BFB6B2E6E786
:104470001546BBE72B6826686169181D286035065C
:104480001B6801D5196002E07006FBD51980002376
:1044900023611546BAE72B681A1D2A601D686268F9
:1044A00000212846FBF7A4FE08B1401B606063684A
:1044B0002361002384F84330A8E723692A4649464C
:1044C0004046D0470130ABD023689B0713D4E06847
:1044D000039B9842B8BF1846A4E7012332464946D9
:1044E0004046D04701309BD00135E36803995B1A01
:1044F000AB42F2DCEBE7002504F11906F5E700BF5B
:104500004A7700085B7700080FB40A4B13B51C68A4
:1045100024B1A36913B9204601F00EF905AB049A42
:10452000A1680193204602F027F802B0BDE81040D0
:1045300004B070470C00002070B50E46054618B157
:1045400083690BB901F0F8F8AB69AC6813B9284678
:1045500001F0F2F82C4B9C4220D16C68636EDB07B3
:1045600005D4A389980502D4A06D01F088F9A38928
:1045700019071DD52369DBB1013EA36816F8011F99
:10458000013BA36039BB002B38DA22460A212846BA
:1045900000F07CF8013011D00A2511E01B4B9C4241
:1045A00001D1AC68DAE71A4B9C4208BFEC68D5E74A
:1045B0002146284600F0BCF80028DDD04FF0FF353A
:1045C000636EDA0705D4A3899B0502D4A06D01F0C0
:1045D00057F9284670BD002B04DAA2699A4206DC1E
:1045E0000A2904D023685A1C22601970C5E72246A4
:1045F000284600F04BF80130BFD1DFE723680A25D9
:104600005A1C22601D70DBE74078000860780008C3
:1046100020780008024B01461868FFF78DBF00BFE5
:104620000C0000200CB430B5174B0C1E1D689DB05B
:1046300008DA8B232B604FF0FF301DB0BDE830400F
:1046400002B070474FF40273ADF8143014BF04F198
:10465000FF332346049307934FF6FF7302900690AF
:10466000ADF81630209A21AB02A92846019301F03B
:1046700059FE431CBCBF8B232B60002CDDD0029B5A
:1046800000221A70D9E700BF0C000020F8B50E46D2
:104690001446054618B183690BB901F04DF8214B5A
:1046A0009C422BD16C68A369A360A3891A072FD5FC
:1046B00023696BB323692068C01A6369F6B2834229
:1046C000374604DC2146284600F0A2FF30BBA36831
:1046D000013BA36023685A1C22601E70636901308D
:1046E000834204D0A389DB0706D50A2E04D12146D4
:1046F000284600F08DFF88B93846F8BD0A4B9C4229
:1047000001D1AC68CFE7094B9C4208BFEC68CAE70F
:104710002146284600F00CF80028CBD04FF0FF3798
:10472000EAE700BF407800086078000820780008B9
:10473000324B70B51D6806460C4625B1AB6913B9FE
:10474000284600F0F9FF2E4B9C420FD16C68A389DC
:10475000B4F90C2019072CD4DD0611D409233360D9
:1047600042F04003A3814FF0FF303EE0254B9C42D6
:1047700001D1AC68EBE7244B9C4208BFEC68E6E74C
:10478000580712D5616B41B104F14403994202D03C
:10479000304601F08BFC00236363A38923F02403DC
:1047A000A3810023636023692360A38943F0080386
:1047B000A38123694BB9A38903F42073B3F5007F68
:1047C00003D02146304601F081F8A089B4F90C20CD
:1047D00010F001030AD00023A36063695B42A36168
:1047E000236943B910F08000BAD170BD810758BF6A
:1047F0006369A360F4E70020F7E700BF0C00002026
:104800004078000860780008207800082DE9F74F0C
:1048100003690C69A3420746C0F28180013C01F1A3
:10482000140800F1140505EB8403019358F82430B3
:1048300055F8242001339A424FEA840B08EB84098F
:10484000B2FBF3F631D34FF0000E4046AC46F246D1
:1048500050F8042B93B206FB03E34FEA134E9BB2CE
:10486000AAEB0303DCF800A0120C13FA8AF306FB90
:1048700002E20093009B4FEA124E92B2C2EB1A4240
:1048800002EB2342BDF80030814543EA02434CF875
:10489000043B4FEA224ADBD255F80B302BB9019B7F
:1048A000043B9D421A462ED33C61384601F0E6FA9D
:1048B000002824DB013628464FF0000C58F8042B62
:1048C000D0F800E093B2ACEB0303120C13FA8EF3B2
:1048D000C2EB1E4202EB23429BB243EA0243C145B4
:1048E00040F8043B4FEA224CE8D255F8242005EB6F
:1048F000840322B9043B9D421A460AD33C613046E8
:1049000003B0BDE8F08F1268043B002ACCD1013C13
:10491000C7E71268043B002AF0D1013CEBE7002016
:10492000EEE70000000000002DE9F04F2DED048BB4
:1049300057EC106B93B0456ADDF88080069110EE5D
:1049400010AA044609920C93BB4675B9102000F0DA
:10495000FDFF0246606220B9A74BEA21A74801F09B
:10496000A1FFC0E901550560C560636A196851B1CE
:104970005A684A60012393408B60204601F03CF85E
:10498000636A00221A603B1EAABF002323F0004B7B
:10499000C8F800309A4BBCBF0122C8F8002033EAA7
:1049A0000B031BD10C9A42F20F731360CBF313036A
:1049B000334300F09285219B63B9924B22E0924BE6
:1049C00001930833219A1360019813B0BDEC048B56
:1049D000BDE8F08F8B4B01930333F3E700220023F4
:1049E00050465946FCF778F84BEC19AB804658B165
:1049F0000C9A01231360219B002B00F06B858348E8
:104A00001860431E0193DFE74BEC10AB10AA11A90D
:104A1000204601F0D9FACBF30A5508EE100A002D12
:104A200000F0848019EE903AC3F3130343F07F57EC
:104A3000564647F44017A5F2FF35CDF83880744B41
:104A4000002230463946FBF727FC65A3D3E9002353
:104A5000FBF7DAFD64A3D3E90023FBF71FFC06464E
:104A600028460F46FBF766FD61A3D3E90023FBF759
:104A7000CBFD02460B4630463946FBF70FFC064697
:104A80000F46FCF771F800220090002330463946AB
:104A9000FCF72CF850B10098FBF74CFD32463B4632
:104AA000FCF71AF810B9009B013B0093009B162BF2
:104AB0005AD8009A574B03EBC203D3E9002351ECB9
:104AC000190BFCF713F8002850D0009B013B009312
:104AD00000230B93109B5D1B6B1E059345BFC5F117
:104AE00001030493002300234CBF05930493009B10
:104AF000002B3DDB059B009A0A921344059300238B
:104B00000793069B092B00F28980052BC4BF043B49
:104B10000693069BA3F10203CCBF00250125032BBE
:104B200000F28780DFE803F02D3A3859DDE91053B1
:104B30001D4405F23243202BC1BFC3F1400305F2EF
:104B400012400BFA03F326FA00F0DABFC3F1200398
:104B500006FA03F01843FBF7DDFC01230646A1F13A
:104B6000F877013D0E936AE70123B2E70B90B1E7B6
:104B7000049B009A9B1A04935342079300230A93C1
:104B8000BFE700230893099B002B55DC0123CDE9E7
:104B900002331A4609920CE00123F3E70023099A35
:104BA0000893009B134402930133012B0393B8BF76
:104BB0000123606A00224260042202F114069E4230
:104BC00041683DD9204600F0D7FE019000283BD136
:104BD000114B02464FF4D571C0E60123DFE700BF59
:104BE00061436F63A787D23FB3C8608B288AC63FF3
:104BF000FB799F501344D33F7977000890770008E2
:104C00000000F07F757700086C770008497700088E
:104C10000000F83F287900080E78000801250023DD
:104C2000069308954FF0FF33CDE90233002212239B
:104C3000B0E701230893F5E7099BCDE90233B8E714
:104C4000013141605200B8E7636A019A1A60039B20
:104C50000E2B00F29D80002D00F09A80009B002B0F
:104C600032DDB74A03F00F0302EBC303D3E9008937
:104C7000009BD8054FEA231716D5B24B51EC190B00
:104C8000D3E90823FBF7EAFD07F00F0782468B46BE
:104C90000325AC4E57B942464B4650465946FBF7A2
:104CA000DDFD82468B4628E00225F2E7F90708D5AC
:104CB00040464946D6E90023FBF7A6FC013580466D
:104CC00089467F100836E5E700F09B80009B9D4FEA
:104CD0005E429B4B06F00F0203EBC203D3E90023B5
:104CE00051EC190BFBF790FC361182468B460023E2
:104CF0000225002E7AD1002BD3D10B9B002B00F084
:104D00008280914B002250465946FBF7EFFE002867
:104D100079D0039B002B76D0029B002B36DD009BC5
:104D2000504659465F1E0022884BFBF76DFC029EE1
:104D300082468B4601352846FBF7FCFB52465B4614
:104D4000FBF762FC824B0022FBF7A8FAD046D9465B
:104D50008246A1F1507B002E58D17E4B0022404666
:104D60004946FBF799FA52465B4680468946FBF76F
:104D7000DBFE002840F0958252460BF1004340468E
:104D80004946FBF7B3FE002840F089825BEC19AB83
:104D9000119B002BC0F24881009A0E2A00F3448137
:104DA000674B03EBC203D3E90089099B002B80F218
:104DB000D580039B002B00F3D18040F06F82654BC0
:104DC000002240464946FBF71FFC52465B46FBF774
:104DD000A1FE039E3746002840F04582019D312305
:104DE00005F8013B009B0133009340E2F20705D533
:104DF000D7E90023FBF708FC0135012376100837BB
:104E000077E7022579E7009F039E94E701994C4BD1
:104E100031440D91089903EBC60353E9022300299D
:104E200043D04D490020FBF719FD52465B46FBF786
:104E300033FA019D82468B4649464046FBF794FE75
:104E40000646FBF777FB02460B4640464946FBF712
:104E500023FA303605F8016B52465B468046894698
:104E6000FBF744FE002863D142464B4636490020FA
:104E7000FBF712FA52465B46FBF738FE002840F07B
:104E8000B5800D9B9D4281D0304B00225046594643
:104E9000FBF7BAFB2D4B82468B4640464946002223
:104EA000FBF7B2FB80468946C6E750465946FBF7FA
:104EB000ABFB0D9B019D0F9382468B4649464046B6
:104EC000FBF752FE0646FBF735FB303602460B4633
:104ED00040464946FBF7E0F905F8016B0D9B9D4202
:104EE000804689464FF0000224D11B4B504659465C
:104EF000FBF7D4F902460B4640464946FBF714FE41
:104F0000002873D152465B4613490020FBF7C4F9D1
:104F100002460B4640464946FBF7E8FD00283FF4B1
:104F200035AF0F9D6B1E0F9315F8013C302BF8D059
:104F3000009749E0054BFBF767FB80468946BDE7D4
:104F400028790008007900080000F03F00002440A4
:104F500000001C40000014400000E03F019D564648
:104F60005F4642464B4630463946FBF777FCFBF737
:104F7000FBFD8246FBF7DEFA42464B46FBF744FB5D
:104F800002460B46304639460AF13006FBF784F9F3
:104F900005F8016B019E039FAE1BB74202460B460C
:104FA00035D1FBF77BF942464B4606460F46FBF7E9
:104FB000BBFDD0B942464B4630463946FBF78CFD27
:104FC00010B11AF0010F10D1204618EE101A00F09F
:104FD00013FD002300982B700C9B01301860219B5F
:104FE000002B3FF4F1AC1D60EEE4009F2B461D4604
:104FF00013F8012D392A06D1019A9A42F7D1019965
:10500000302201370A701A7801321A7090E7A64BE5
:105010000022FBF7F9FA0022002306460F46FBF7B1
:105020005BFD00289DD0CFE7089A002A00F0D780CA
:10503000069A012A00F3BA800E9A002A00F0B28084
:1050400003F23343079E049D049A1A440492059A7E
:1050500001211A442046059200F086FD0746002DE6
:105060000CDD059B002B09DDAB42049AA8BF2B4643
:10507000D21A0492059AED1AD31A0593079B1BB313
:10508000089B002B00F0AF80002E13DD394632461E
:10509000204600F029FE18EE102A01460746204659
:1050A00000F078FD18EE101A8046204600F0A4FCAF
:1050B00008EE108A079B9A1B06D018EE101A20469D
:1050C00000F012FE08EE100A0121204600F04CFD0F
:1050D0000A9B002B064640F388801A46014620466C
:1050E00000F002FE069B012B064640F381804FF044
:1050F0000008336906EB8303186900F0E5FCC0F192
:105100002000059B184410F01F0000F09280C0F1B1
:105110002003042B40F38A80C0F11C00049B03444D
:105120000493059B034405440593049B002B07DD72
:1051300018EE101A1A46204600F030FE08EE100A4B
:10514000059B002B05DD31461A46204600F026FE61
:1051500006460B9B002B6ED018EE100A314600F06D
:105160008DFE002867DA009B013B18EE101A0093B1
:105170000A220023204600F061FC089B08EE100A7A
:10518000002B00F0B181002339460A22204600F0AE
:1051900055FC029B002B074600F38E80069B022BDA
:1051A00051DC89E0109BC3F136034BE7039B5E1E85
:1051B000079BB342BFBF079B0796F21A0A9BB6BF75
:1051C0009B189E1B0A93039BB8BF0026002BB7BFFA
:1051D000DDE90323DDE903359D1A002334E7079E4B
:1051E000049D089F3BE7079A67E7069B012B18DCA5
:1051F000BAF1000F15D1CBF3130393B92BF0004391
:105200001B0D1B0583B1049B01330493059B0133E4
:1052100005934FF001080A9B002B7FF46AAF012031
:105220006FE74FF00008F6E79846F4E73FF47DAFEC
:1052300018461C3072E7039B002B37DC069B022BC1
:1052400034DD039B0293029B6BB931460522204655
:1052500000F0F4FB0146064618EE100A00F00EFEC0
:1052600000283FF7BBAD099B019DDB4300934FF046
:1052700000083146204600F0BFFB002F3FF4A4AEEB
:10528000B8F1000F05D0B84503D04146204600F0E4
:10529000B3FB3946204600F0AFFB95E600263746C3
:1052A000E1E70097374699E500002440089B002B72
:1052B00000F0CA80039B0293002D05DD39462A4683
:1052C000204600F06BFD0746B8F1000F5BD079680F
:1052D000204600F051FB054628B9874B024640F2B4
:1052E000EA21FFF73BBB3A690232920007F10C0159
:1052F0000C3000F033FB01222946204600F04EFD21
:10530000019B03F10109DDE90123134405930AF030
:105310000103B84604930746314618EE100AFFF71A
:1053200075FA4146029000F1300A18EE100A00F0BA
:10533000A5FD3A4603903146204600F0BBFDC26809
:1053400009F1FF3B054602BB014618EE100A00F0CA
:1053500095FD024629462046079200F04DFBDDE907
:10536000063243EA0201049B0B434D460FD1BAF1CA
:10537000390F2AD0039B002B02DD029B03F1310A77
:105380008BF800A075E73846BAE70122E2E7039BF5
:10539000002B04DB06990B4304990B4322D1002A0E
:1053A000EEDD18EE101A0122204600F0F7FC31461F
:1053B00008EE100A00F062FD002803DCE0D11AF0CC
:1053C000010FDDD0BAF1390FD7D139238BF8003076
:1053D0002B461D46013B15F8012C392A71D00132AC
:1053E0001A7046E7002A07DDBAF1390FEDD00AF14D
:1053F00001038BF800303CE7059B09F801AC9945A7
:1054000047D018EE101A00230A22204600F016FB9F
:10541000B84508EE100A4FF000034FF00A0241466B
:10542000204606D100F00AFB8046074609F1010933
:1054300072E700F003FB3946804600230A2220462B
:1054400000F0FCFA0746F1E7039B0293019D18EE7A
:10545000100A3146FFF7DAF900F1300A019B05F82E
:1054600001ABEA1A029B934209DD18EE101A0023E1
:105470000A22204600F0E2FA08EE100AE7E7029B53
:10548000002BC8BF1D46019BD8BF01251D444FF00E
:10549000000818EE101A0122204600F07FFC314669
:1054A00008EE100A00F0EAFC002891DC02D11AF0A4
:1054B000010F8DD12B461D4613F8012D302AFAD04D
:1054C000D7E6019A9A4284D1009B0133009331239D
:1054D0001370CEE6094BFFF795BA219B002B7FF4A2
:1054E0006EAA074BFFF78EBA029B002BAEDC069B21
:1054F000022B3FF7A8AEA9E70E780008487700080E
:105500006C7700088A892DE9F041054610070C46A2
:1055100058D44B68002B05DC0B6C002B02DC002000
:10552000BDE8F081E66A002EF9D0002312F4805223
:105530002F682B6032D0606DA3895A0705D5636848
:10554000C01A636B0BB1236CC01A00230246E66AD3
:10555000216A2846B047431CA38906D129681D2922
:105560002CD82A4ACA40D60728D500226260D9041E
:105570002269226004D5421C01D12B6803B9606501
:10558000616B2F600029CAD004F14403994202D014
:10559000284600F08BFD00206063C1E7216A0123EB
:1055A0002846B047411CC7D12B68002BC4D01D2B07
:1055B00001D0162B01D12F60B1E7A38943F040033E
:1055C000A381ADE70F69002FA9D093070E6808BF2C
:1055D0004B690F6018BF0023A6EB07088B60B8F17A
:1055E000000F9CDD216AA66A43463A462846B0472A
:1055F000002806DCA38943F04003A3814FF0FF306D
:105600008EE70744A8EB0008E9E700BF010040204F
:1056100038B50B6905460C4613B90025284638BD38
:1056200018B183690BB900F087F8144B9C421BD169
:105630006C68B4F90C30002BEFD0626ED00704D444
:10564000990502D4A06D00F01AF928462146FFF70B
:1056500059FF636EDA070546E0D4A3899B05DDD4C4
:10566000A06D00F00DF9D9E7054B9C4201D1AC6863
:10567000DFE7044B9C4208BFEC68DAE7407800089B
:105680006078000820780008002310B50446C0E9BF
:105690000033C0E90433836081814366C281836142
:1056A000194608225C30FEF7BDFA054B6362054BD4
:1056B000A362054BE362054B2462236310BD00BF68
:1056C000F96700081B68000853680008776800083D
:1056D000014900F0AFB800BF1156000870B568224C
:1056E0004D1E55430E4605F1740100F04BFD044676
:1056F00040B10021C0E900160C30A06005F168023D
:10570000FEF790FA204670BD014800F0B8B800BF1F
:10571000D5020020014800F0B3B800BFD502002038
:10572000014800F0ACB800BFD6020020014800F0EC
:10573000A7B800BFD602002010B50446FFF7F0FF5F
:10574000A3691BB1BDE81040FFF7F0BFC4E91233F5
:105750002365134B134A1B68A262A34204BF0123B3
:10576000A361204600F020F86060204600F01CF89D
:10577000A060204600F018F80022E0600421606874
:10578000FFF782FFA06801220921FFF77DFFE06893
:1057900002221221FFF778FF0123A361D2E700BFA5
:1057A00034770008D1560008F8B50746FFF7ACFF7C
:1057B0001E4B1E68B36913B93046FFF7BDFF48366C
:1057C000D6E90134013B03D533680BB33668F7E7FC
:1057D000B4F90C50D5B9164BE36004F15800656676
:1057E00000F04CF8FFF796FFC4E90155C4E90455F1
:1057F0002560A5610822294604F15C00FEF712FA33
:10580000C4E90D55C4E912552046F8BD6834D9E7FE
:1058100004213846FFF762FF044630600028D5D1E6
:10582000FFF778FF0C233B60EEE700BF34770008FA
:105830000100FFFF2DE9F8430646884600F14804C1
:105840000027D4E90195B9F1010905D52468002C98
:10585000F7D13846BDE8F883AB89012B07D9B5F9F4
:105860000E30013303D029463046C0470743683520
:10587000E9E700000048704760010020704770476A
:10588000704770B50E46B1F90E10002996B0144657
:105890001D4608DAB6F90C3000222A601A0610D428
:1058A0004FF480630EE06A4601F03CF80028F1DB1B
:1058B000019A02F47042A2F500535A425A412A60FA
:1058C000EEE740230020236016B070BD8B8973B5CE
:1058D0009D0706460C4607D504F147032360236164
:1058E0000123636102B070BD01AB6A46FFF7C9FFD7
:1058F00000990546304600F045FC48B9B4F90C3033
:105900009A05EFD423F0030343F00203A381E3E7F6
:105910000D4BB362A389206043F08003A381009BF9
:105920006361019B20615BB1B4F90E10304601F058
:105930000BF828B1A38923F0030343F00103A381EB
:10594000A0890543A581CDE7D1560008024B014649
:10595000186800F017BC00BF0C0000200A449142F8
:1059600000F1FF3300D1704710B511F8014B03F877
:10597000014F9142F9D110BD70B5466A04460D46FB
:1059800076B91020FFF7E2FF0246606220B9184B9B
:105990001848662100F086FFC0E901660660C6600F
:1059A000666AF36883B1636ADB6853F82500B8B9A7
:1059B000012101FA05F6721D9200204600F060FBFD
:1059C00060B1C0E901560EE021220421204600F01A
:1059D00057FB636AF060DB68002BE4D1002070BDE8
:1059E000026843F825200023C0E90333F7E700BF2E
:1059F000797700088078000870B5466A05460C463D
:105A000076B91020FFF7A2FF0246686220B9094B61
:105A100009488A2100F046FFC0E901660660C660B9
:105A20003CB16B6A6268DB6853F82210216043F86E
:105A3000224070BD79770008807800082DE9F04198
:105A40000D6907460C461E4601F1140C0020DCF8D7
:105A5000003099B202FB01611E0C0B0C02FB0633F5
:105A600089B2013001EB034185424CF8041B4FEA37
:105A70001346ECDC0EB3A368AB4219DC6168384610
:105A80000131FFF779FF804628B902460C4B0D48DB
:105A9000B52100F007FF2269023204F10C019200E7
:105AA0000C30FFF75BFF21463846FFF7A5FF444661
:105AB00004EB850301355E6125612046BDE8F08178
:105AC0000E78000880780008030C1B04D3B900048A
:105AD000102310F07F4F04BF0002083310F0704F06
